:100000000C9434000C9451000C9451000C94510049
:100010000C9451000C9451000C9451000C9451001C
:100020000C9451000C9451000C9451000C947D02DE
:100030000C9451000C9451000C9451000C945100FC
:100040000C9451000C9451000C9451000C945100EC
:100050000C9451000C9451000C9451000C945100DC
:100060000C9451000C94510011241FBECFEFD4E02A
:10007000DEBFCDBF11E0A0E0B1E0E0E4F8E002C0F7
:1000800005900D92A030B107D9F711E0A0E0B1E0E2
:1000900001C01D92AC30B107E1F70E9453000C94EF
:1000A0001F040C940000CFEFD4E0DEBFCDBFFFCF24
:1000B00010928000E1E8F0E080818960808380E236
:1000C0009EE4909389008093880084E190E0A0E012
:1000D000B0E08093080190930901A0930A01B093C6
:1000E0000B0182E080936F001092000110920101D9
:1000F0001092020110920301109204011092050166
:100100001092060110920701789408952F923F9261
:100110004F925F926F927F928F929F92AF92BF9217
:10012000CF92DF92EF92FF920F931F9320900001E6
:100130003090010140900201509003016090040151
:10014000709005018090060190900701222D332DBB
:10015000442D552D662D772D882D992D1F910F91AA
:10016000FF90EF90DF90CF90BF90AF909F908F90D7
:100170007F906F905F904F903F902F9008952F92B7
:100180003F924F925F926F927F928F929F92AF9227
:10019000BF92CF92DF92EF92FF920F931F93CF9374
:1001A000DF93CDB7DEB768970FB6F894DEBF0FBE0A
:1001B000CDBF60908400709085008091000189839C
:1001C000909101019A83E0910201EB83F091030188
:1001D000FC83809104018D83909105019E83E091C1
:1001E0000601EF83F0910701F88789809A80AB8040
:1001F000BC8002E0282D392D4A2D5B2D682F792FE8
:100200008E2F9F2F0E94430329873A874B875C8755
:100210006D877E878F87988B05E00E944303822E2F
:10022000932EA42EB52EC62ED72EE82EF92E022FF1
:100230008985081B81E0801608F080E0192D9A85D9
:10024000191BA1E0911608F0A0E0E12FE81B8E2F0A
:1002500091E01E1708F090E0A92B182F2A2DFB859E
:100260002F1BB1E0A21608F0B0E0822F8A1B91E0AC
:10027000281708F090E0B92B282F3B2D8C85381BD0
:10028000A1E0B31608F0A0E0832F8B1B91E0381794
:1002900008F090E0A92B382F4C2D9D85491BB1E02B
:1002A000C41608F0B0E0842F8A1B91E0481708F0CC
:1002B00090E0B92B482F5D2DEE855E1BA1E0D51691
:1002C00008F0A0E0852F8B1B91E0581708F090E014
:1002D000A92B582F6E2DFF856F1B91E0E61608F0B5
:1002E00090E0862F8A1BE1E0681708F0E0E09E2B83
:1002F000682F7F2D8889781B791B8980800E81E08B
:10030000801608F080E09A80910EA1E0911608F026
:10031000A0E0890D91E0891508F090E0A92B982EB6
:10032000AB80A20EB1E0A21608F0B0E08A2F8A0DD1
:1003300091E08A1508F090E0B92BA82EBC80B30E8E
:10034000A1E0B31608F0A0E08B2F8B0D91E08B1588
:1003500008F090E0A92BB82ECD80C40EB1E0C416F1
:1003600008F0B0E08A2F8C0D91E08C1508F090E039
:10037000B92BC82EDE80D50EA1E0D51608F0A0E07E
:100380008B2F8D0D91E08D1508F090E0A92BD82EC4
:10039000EF80E60EF1E0E61608F0F0E08A2F8E0D11
:1003A00091E08E1508F090E09F2BF884F70E9F0DDA
:1003B00003E0282D392D4A2D5B2D6C2D7D2D0E94BB
:1003C0004303822E932EA42EB52EC62ED72EE82EB2
:1003D000F92EB3018827992720910801309109014E
:1003E00040910A0150910B010E94C603298B3A8B60
:1003F0004B8B5C8B1D8A1E8A1F8A188E0989080DFB
:1004000081E0081508F080E01A89190DA1E019159E
:1004100008F0A0E0810F91E0811708F090E0A92B8F
:10042000182F2B892A0DB1E02A1508F0B0E08A2F89
:10043000820F91E0821708F090E0B92B282F3C89B9
:100440003B0DA1E03B1508F0A0E08B2F830F91E05E
:10045000831708F090E0A92B382F4D894C0DB1E09F
:100460004C1508F0B0E08A2F840F91E0841708F053
:1004700090E0B92B482F5E895D0DA1E05D1508F075
:10048000A0E08B2F850F91E0851708F090E0A92B55
:10049000582F6F896E0DF1E06E1508F0F0E08A2F8D
:1004A000860F91E0861708F090E09F2B788D7F0DE6
:1004B000970F202E422E532E642E752E222D312F73
:1004C000442D552D662D772D68960FB6F894DEBF16
:1004D0000FBECDBFDF91CF911F910F91FF90EF9095
:1004E000DF90CF90BF90AF909F908F907F906F9054
:1004F0005F904F903F902F9008951F920F920FB6EC
:100500000F9211248F929F92AF92BF92CF92DF925F
:10051000EF92FF920F931F932F933F934F935F930D
:100520006F937F938F939F93AF93BF93EF93FF93BB
:10053000CF93DF93CDB7DEB72897DEBFCDBF8090D6
:10054000000190900101A0900201B0900301C090C1
:100550000401D0900501E0900601F090070181E0D0
:1005600089831A821B821C821D821E821F8218862A
:1005700001E0080D081508F080E01A81190DA1E0CE
:10058000191508F0A0E0810F91E0811708F090E0C4
:10059000A92B182F2B812A0DB1E02A1508F0B0E005
:1005A0008A2F820F91E0821708F090E0B92B282F54
:1005B0003C813B0DA1E03B1508F0A0E08B2F830FA1
:1005C00091E0831708F090E0A92B382F4D814C0D56
:1005D000B1E04C1508F0B0E08A2F840F91E0841749
:1005E00008F090E0B92B482F5E815D0DA1E05D150C
:1005F00008F0A0E08B2F850F91E0851708F090E0C0
:10060000A92B582F6F816E0DF1E06E1508F0F0E008
:100610009A2F960F81E0961708F080E08F2B78854F
:100620007F0D870F009300011093010120930201B9
:100630003093030140930401509305019093060108
:10064000809307012896F894DEBFCDBFDF91CF914C
:10065000FF91EF91BF91AF919F918F917F916F919A
:100660005F914F913F912F911F910F91FF90EF90CC
:10067000DF90CF90BF90AF909F908F900F900FBE64
:100680000F901F901895A0E1B0E0E9E4F3E00C941E
:10069000E803222E332E442E552E662E772E882EDA
:1006A000992E002309F466C088E0FE01319611926C
:1006B0008A95E9F729833A834B835C836D837E8334
:1006C0008F829887E0E2E01B1E16CCF529813A81E3
:1006D0004B815C81602F772767FD7095DA01C90136
:1006E000062E04C0880F991FAA1FBB1F0A94D2F7B9
:1006F00089879A87AB87BC8704C0569547953795FD
:100700002795EA95D2F78D819E81AF81B88504C087
:10071000880F991FAA1FBB1F6A95D2F7282B392B68
:100720004A2B5B2B2D873E874F87588B29843A8431
:100730004B845C846D847E848F8498881BC019866A
:100740001A861B861C862E2F332727FD3095309561
:1007500021953F4F89819A81AB81BC8104C0880F6C
:10076000991FAA1FBB1F2A95D2F78D879E87AF8737
:10077000B88BDCCF222D332D442D552D662D772DB2
:10078000882D992DE2E160960C940404A1E21A2EC2
:10079000AA1BBB1BFD010DC0AA1FBB1FEE1FFF1F25
:1007A000A217B307E407F50720F0A21BB30BE40B75
:1007B000F50B661F771F881F991F1A9469F76095BC
:1007C0007095809590959B01AC01BD01CF01089576
:1007D0002F923F924F925F926F927F928F929F9251
:1007E000AF92BF92CF92DF92EF92FF920F931F933F
:1007F000CF93DF93CDB7DEB7CA1BDB0B0FB6F894F0
:10080000DEBF0FBECDBF09942A88398848885F842F
:100810006E847D848C849B84AA84B984C884DF80A0
:10082000EE80FD800C811B81AA81B981CE0FD11D84
:100830000FB6F894DEBF0FBECDBFED010895FFCF18
:00000001FF
