:1070000039C000006EC000006CC000006AC0000003
:1070100068C0000066C0000064C0000062C00000DC
:1070200060C000005EC000005CC0000056C50000EB
:1070300058C0000056C0000054C0000052C00000FC
:1070400050C000004EC00000CCC100004AC000008B
:1070500048C0000046C0000044C0000042C000001C
:1070600040C000003EC000003CC000003AC000002C
:1070700038C0000011241FBECFEFD4E0DEBFCDBF6B
:1070800004B603FE19C080917F0190918001823483
:107090009C4D91F484B7877F84BF88E10FB6F89444
:1070A00080936000109260000FBE109280011092D9
:1070B0007F01E0E0F0E0099511E0A0E0B1E0E0EB55
:1070C000FDE702C005900D92A236B107D9F721E085
:1070D000A2E6B1E001C01D92AF37B207E1F738D1A7
:1070E00065C68ECF8823A9F09091F20091110DC052
:1070F0009091E8009B7F9093E8009091E80092FDCA
:1071000006C09EB39111F9CF04C09091F100815057
:10711000E9CF089530916F0120916E0190916D013A
:1071200080916C019093640180936501C9019093F3
:1071300062018093630108951F93CF93DF93CDB7CE
:10714000DEB727970FB6F894DEBF0FBECDBF909184
:10715000740180916A019923D1F0843049F48091BF
:107160006B01811108C080916C018F3F21F45AC0DE
:10717000853009F4ADC08AE08093000183E08093FC
:1071800072018091EB0080628093EB00D7C0843065
:1071900009F448C028F4813051F08330F1F0CEC0BA
:1071A000853009F495C0863009F4BCC0C7C0109181
:1071B0006B01123008F0C2C0ADDF11110CC080911C
:1071C00064019091650123E0FC0120935700E8954C
:1071D00007B600FCFDCF85E007C080916B01982FBA
:1071E0009D7F29F497DF89E080930001A7C081305B
:1071F00009F0A4C0E0E0F0E084918F3F69F01092C4
:107200006601F0936501E09364018AE080930001D8
:1072100085E08093720192C03196E11520E7F20774
:1072200059F78CC080916B01833071F581E08093B8
:107230007301809170019091710120916C01892BF3
:1072400061F0213009F07AC090916F0180916E0158
:10725000909367018093680171C0211112C082E48C
:107260009CED9093800180937F012CE088E190E079
:107270000FB6F894A895809360000FBE209360002D
:107280005DC0109201015AC0811158C080916C01FB
:107290008F3F09F053C0E0E0F0E083E095E0809399
:1072A0005700E89507B600FCFDCF90935700E8958E
:1072B00007B600FCFDCFE058FF4FE11520E7F207CD
:1072C00071F781E180935700E8951092740136C000
:1072D00080E28D838CED8E838BEF8F8388E58983AD
:1072E0008EE18A8385E98B838AE88C8320916C0107
:1072F00080916B01811105C0FE01E20FF11D8581B6
:107300000EC08130D9F4822F90E0FE01203610F4B7
:10731000BF9702C0EC55F109E80FF91F80818093F7
:1073200069010CC080916B01833041F480916C0144
:10733000811104C080916D018093660127960FB67C
:10734000F894DEBF0FBECDBFDF91CF911F9108959E
:1073500084B7877F84BF88E10FB6F894809360007C
:10736000109260000FBE90E080E80FB6F894809312
:107370006100909361000FBEC1E0C5BF82E085BF90
:107380009DD38AB1806F8AB98BB18F708BB9C0934E
:107390006F0083E080938100249A8BB18F708061AD
:1073A0008BB9789480910101882311F0E1D4FACF50
:1073B000809173018111FACF38D38AB18F708AB965
:1073C0008BB18F708BB92C98249810926F0010920B
:1073D000810081E085BF15BEE0916701F0916801F1
:1073E00009951F920F920FB60F9211248F939F93BE
:1073F00085B190E1892785B99F918F910F900FBE3C
:107400000F901F901895CF92DF92EF92FF920F93FB
:107410001F93CF93DF93809177018F77813209F0AB
:10742000E9C180E389B980917D0190917E019093BB
:1074300071018093700180917801833009F49BC1C0
:1074400058F48130D1F0823009F0D4C18091E80045
:10745000877F8093E80003C1853009F4B2C108F446
:10746000A8C1863009F0C6C18091E800877F80936B
:10747000E80082E080930001B4C18091E800877F3A
:107480008093E80080917301882319F055DE1092F3
:1074900073018091700190917101009741F12091E9
:1074A000E80022FD04C02EB32111F9CFA3C1209121
:1074B000F10020936A01019790937101809370010C
:1074C000EBE6F1E08091F200882381F08091F100F9
:1074D0008193809170019091710101979093710156
:1074E0008093700181E0E037F80761F725DE809135
:1074F0000001853009F0ABC080917001909171015D
:10750000892B21F482E080930001A1C08AE1EADDA9
:10751000E0906401F09065018E2D8F71E3DD0091A4
:107520006201109163010F5F1F4F0E191F098091B7
:107530006B01811182C0E801D695C795C7012091E2
:107540006601A22FB0E08C019D01F12CEE24E394A2
:1075500065E0D62E73E0C72E209709F442C0409113
:10756000F2004423D1F021977091F1006091F10075
:10757000472F562FFC010A01E0925700E89511248D
:10758000F394AC01BD014E5F5F4F6F4F7F4FDB0146
:10759000CA01F0E4FF120EC00FC04091E8004B7F1B
:1075A0004093E8004091E80042FDDDCF4EB3411129
:1075B000F9CF20C1209781F6F801D0925700E895C5
:1075C00007B600FCFDCF209709F4C6CFFA01C092A0
:1075D0005700E89507B600FCFDCF8A019B01F12C0E
:1075E000BBCF80916201909163019093650180937C
:1075F000640181E180935700E89527C08091F200F3
:10760000811109C08091E8008B7F8093E800809110
:10761000E80082FF16C0015011096091F1008091CD
:10762000640190916501B4D38091640190916501EA
:107630000196909365018093640101151105F1F69F
:1076400004C08EB38111E3CFD5C080E14BDD8091C2
:10765000E8008B7F8DC08EB3882309F4CBC0809166
:10766000E80080FFF8CF80910001893091F08A30E6
:1076700059F480916B01813039F4909164018091CB
:1076800065019093F10002C0809169018093F1003F
:107690006CC040916401509165012091620130916C
:1076A00063012F5F3F4F241B350B80916B018111CC
:1076B00031C0CA0140916601A42FB0E036952795EC
:1076C00021153105F1F04091F200403269F440910A
:1076D000E8004E7F4093E8004091E80040FD04C080
:1076E0004EB34111F9CF86C0FC01459154914093AE
:1076F000F1005093F1000296A11DB11D21503109F6
:10770000DFCF809162019091630190936501809336
:10771000640128C0823031F5E901209719F1809188
:10772000F200803269F48091E8008E7F8093E80057
:107730008091E80080FD04C08EB38111F9CF5AC05A
:1077400080916401909165011BD38093F100809139
:1077500064019091650101969093650180936401A5
:107760002197DBCF82E0809300018091E8008E7F3B
:107770008093E80036C08091E800877F8093E8001E
:107780008091E80080FD04C08EB38111F9CF32C032
:10779000809172018093F1001092F1001092F1003B
:1077A0001092F100809100018093F1001092F1009D
:1077B000DCCF8091E800877F8093E800109272010F
:1077C00010C08091E800877F8093E8008091E800F6
:1077D00080FD04C08EB38111F9CF0CC080910001EF
:1077E00055CFDF91CF911F910F91FF90EF90DF90D8
:1077F000CF90FCC0DF91CF911F910F91FF90EF9040
:10780000DF90CF900895292F30E02230310539F0F4
:107810002330310549F02130310561F410C08BE18E
:1078200090E024E331E01EC0882371F0813089F0BC
:107830008230A1F080E090E020E030E013C082E1EF
:1078400090E02FE431E00EC084E090E020E331E0EE
:1078500009C088E190E026E131E004C082E190E0D7
:1078600022E031E0FA0131832083089507B600FC5D
:10787000FDCFF999FECF23E0FB0120935700E89557
:1078800007B600FCFDCF81E180935700E89508958D
:1078900007B600FCFDCFF999FECF25E0FB01209350
:1078A0005700E89507B600FCFDCF81E180935700B3
:1078B000E895089507B600FCFDCFF999FECF21E0C9
:1078C000FB010A0120935700E8951124089521E255
:1078D000FC01209357008491089529E0FC01209336
:1078E000570084910895E1E0F0E089E0809357002B
:1078F0008491089507B600FCFDCFF999FECF8095DD
:1079000099E0E1E0F0E0082E90935700E8950895A3
:1079100020917D0130917E012617370748F06115CF
:10792000710539F42091E8002E7F2093E80001C012
:10793000B90120E061157105C9F13EB3332309F4A3
:1079400040C0353009F43FC03091E80033FD37C006
:107950003091E80032FF06C08091E80082FF29C024
:1079600080E008953091E80030FFE4CF2091F200EC
:1079700030E0FC01281B390BCF01820F931F6115EA
:10798000710549F08032910530F481918093F100C6
:1079900061507109F1CF21E0809709F020E08091DA
:1079A000E8008E7F8093E800CF01C4CF2111C5CFBE
:1079B000D3CF8EB3882329F0853071F604C081E0DF
:1079C000089582E0089583E00895EBEEF0E0808171
:1079D00081608083EDEEF0E010826093EC004083E4
:1079E0008091EE00881F8827881F08958091770175
:1079F00087FD05C08091E80080FF0DC010C0809118
:107A0000E80082FD04C08EB38111F9CF0895809102
:107A1000E8008B7F07C08EB38111ECCF0895809171
:107A2000E8008E7F8093E800089551D053D0E0EEB7
:107A3000F0E0808181608083E8EDF0E080818F77E5
:107A4000808319BCE3E6F0E080818160808310923E
:107A5000760108953CD03ED08091D8008F778093F6
:107A6000D8008091D80080688093D8008091D80099
:107A70008F7D8093D80084E089BD86E089BD09B4FC
:107A800000FEFDCF1EBA1092750142E260E080E078
:107A90009CDF8091E1008E7F8093E1008091E20085
:107AA00081608093E2008091E20088608093E20030
:107AB0008091E0008E7F8093E0000895E3E6F0E09F
:107AC00080818E7F808381E080937601C3CF109286
:107AD000E20008951092E10008951F920F920FB6F0
:107AE0000F9211242F933F934F935F936F937F9344
:107AF0008F939F93AF93BF93EF93FF938091E10098
:107B000080FF16C08091E20080FF12C08091E200E9
:107B10008E7F8093E2008091E20080618093E2009A
:107B20008091D80080628093D80019BC1EBA1FD102
:107B30008091E10084FF2EC08091E20084FF2AC082
:107B400084E089BD86E089BD09B400FEFDCF809147
:107B5000D8008F7D8093D8008091E1008F7E809344
:107B6000E1008091E2008F7E8093E2008091E2004C
:107B700081608093E20080917501882311F084E098
:107B800007C08091E30087FF02C083E001C081E06D
:107B90008EBBEDD08091E10083FF21C08091E20097
:107BA00083FF1DC08091E100877F8093E10082E028
:107BB0008EBB109275018091E1008E7F8093E10071
:107BC0008091E2008E7F8093E2008091E2008061EC
:107BD0008093E20042E260E080E0F7DEC8D0FF91EF
:107BE000EF91BF91AF919F918F917F916F915F9135
:107BF0004F913F912F910F900FBE0F901F901895AE
:107C00001F93CF93DF9300D0CDB7DEB7E7E7F1E066
:107C10008091F100819381E0EF37F807C9F7F3DB3A
:107C20008091E80083FF8FC0909177018091780167
:107C30008630E1F128F4882351F08530B1F083C01B
:107C4000883009F453C0893009F462C07CC09D7F3C
:107C5000903809F078C08091E800877F8093E80031
:107C60001092F1001092F1004CC091116CC0109173
:107C700079011F778091E3008078812B8093E30066
:107C80008091E800877F8093E800B0DE8091E80073
:107C900080FFFCCF8091E30080688093E300112394
:107CA00011F083E001C082E08EBB4DC0905892304D
:107CB00008F049C0AE014F5F5F4F60917B0180913A
:107CC000790190917A019FDD009709F43CC02091E1
:107CD000E800277F2093E800BC0189819A8118DEA3
:107CE0008091E8008B7F8093E8002DC0903859F593
:107CF0008091E800877F8093E800809175018093F0
:107D0000F1008091E8008E7F8093E8006FDE1BC059
:107D1000911119C0909179019230A8F48091E800F6
:107D2000877F8093E8009093750160DE80917501F4
:107D3000811104C08091E30087FF02C084E001C08C
:107D400081E08EBB14D08091E80083FF0AC080914F
:107D5000E800877F8093E8008091EB008062809349
:107D6000EB000F900F90DF91CF911F910895089530
:107D70008EB3882321F08091E80083FD41CF0895E0
:107D8000F999FECF92BD81BDF89A992780B50895E3
:107D9000262FF999FECF1FBA92BD81BD20BD0FB627
:107DA000F894FA9AF99A0FBE01960895F894FFCFC5
:107DB000020112034C00550046004100200044001F
:107DC00046005500000018034400650061006E0085
:107DD0002000430061006D0065007200610000003A
:107DE0000403090409021B00010100803209040098
:107DF0000000FE0102000921030000000C10011226
:107E000001100100000020EB03F02F000001020030
:027E100001006F
:107FA00065CC76CC87CC93CC98CC9DCCA3CC0895D3
:087FB000089508950895089555
:107FE000DFCFDFCFDFCFDFCFDFCFDFCFDFCFDFCF21
:087FF000DFCFDFCFDFCFDFCFD1
:087FF8000070000010DFFBDC4B
:040000030000700089
:00000001FF
